:100000000C9446000C9465000C9465000C946500FB
:100010000C9465000C9465000C9465000C946500CC
:100020000C9465000C9465000C9465000C946500BC
:100030000C9465000C940C010C9465000C94650004
:100040000C9465000C9465000C9465000C9465009C
:100050000C9465000C9465000C9465000C9465008C
:100060000C9465000C9465000C9465000C9465007C
:100070000C9465000C9465000C9465000C9465006C
:100080000C9465000C9465000C94650011241FBE4F
:10009000CFEFD0E4DEBFCDBF11E0A0E0B1E0E8E2F9
:1000A000FBE000E00BBF02C007900D92A431B10746
:1000B000D9F721E0A4E1B1E001C01D92AE31B20751
:1000C000E1F70E94D4020C9492050C940000CF93A7
:1000D000DF9300D01F92CDB7DEB789837B836A831D
:1000E00089818A3031F48A819B81BC018DE00E9434
:1000F000670080EC90E0FC018081882F90E08072A6
:100100009927892BB1F386EC90E02981FC012083AB
:1001100080E090E00F900F900F90DF91CF910895C5
:10012000CF93DF9300D000D0CDB7DEB769837A8359
:100130008B839C8389819A81AB81BC8180930E01E2
:1001400090930F01A0931001B093110180910E01C3
:1001500090910F01A0911001B091110180931501B0
:1001600090931601A0931701B093180100000F900F
:100170000F900F900F90DF91CF910895CF93DF9361
:10018000CDB7DEB781E890E02BE0FC01208388E862
:1001900090E02DE730E0FC01318320838FE690E092
:1001A00022E0FC01208384E890E0FC0111821082AF
:1001B00080910E0190910F01A0911001B091110159
:1001C0008093150190931601A0931701B093180125
:1001D0008FE590E02FE530E0F90120812068FC01F7
:1001E00020830000DF91CF910895CF93DF93CDB7A7
:1001F000DEB781E890E0FC0110820000DF91CF9132
:100200000895CF93DF93CDB7DEB781E080931401DB
:100210000000DF91CF9108951F920F9200905F0030
:100220000F92112400905B000F922F933F934F93F6
:100230005F936F937F938F939F93AF93BF93EF934E
:10024000FF93CF93DF93CDB7DEB7809115019091E7
:100250001601A0911701B09118010197A109B109E8
:100260008093150190931601A0931701B093180184
:100270008091150190911601A0911701B09118017C
:10028000892B8A2B8B2B91F40E94010180910E0106
:1002900090910F01A0911001B0911101809315016F
:1002A00090931601A0931701B09318010000DF91FD
:1002B000CF91FF91EF91BF91AF919F918F917F91DE
:1002C0006F915F914F913F912F910F9000925B0042
:1002D0000F9000925F000F901F901895CF93DF93BF
:1002E000CDB7DEB72C970FB6F894DEBF0FBECDBFEB
:1002F0006D837E838F83988729873A874B875C87B6
:100300008D819E81AF81B88529853A854B855C8535
:10031000BC01CD010E94DC03DC01CB0189839A83FF
:10032000AB83BC8389819A81AB81BC81892B8A2B69
:100330008B2B29F489859A85AB85BC8511C089856D
:100340009A85AB85BC858D839E83AF83B887898171
:100350009A81AB81BC8189879A87AB87BC87D0CFD4
:10036000BC01CD012C960FB6F894DEBF0FBECDBFF9
:10037000DF91CF910895CF93DF9300D0CDB7DEB753
:1003800089836A838A81282F30E081E090E002C06F
:10039000880F991F2A95E2F7982F898189230F905A
:1003A0000F90DF91CF9108950F931F93CF93DF9319
:1003B00000D000D0CDB7DEB769837A838B839C836E
:1003C00080911A0190911B01A0911C01B0911D0117
:1003D0009C01AD0169817A818B819C810E94FE0321
:1003E000882309F477C020E030E0A90169817A818F
:1003F0008B819C810E94FE03882351F481E990E067
:1004000021E930E0F90120812870FC01208309C036
:1004100081E990E021E930E0F90120812360FC01CD
:10042000208328E539E344E75FE369817A818B81A2
:100430009C810E94FE03882344F488E990E02FEF1A
:100440003FEFFC013183208334C020E034E244EFED
:1004500056E469817A818B819C810E94200518165F
:1004600034F488E990E0FC011182108222C008E98E
:1004700010E020E030E040E053E469817A818B8134
:100480009C810E942505DC01CB019C01AD0160E04F
:1004900074E284EF9AE40E940304DC01CB01BC0106
:1004A000CD010E947504DC01CB010197F801918315
:1004B000808384E990E0FC011182108289819A8115
:1004C000AB81BC8180931A0190931B01A0931C0106
:1004D000B0931D0100000F900F900F900F90DF91CF
:1004E000CF911F910F910895CF93DF93CDB7DEB7D2
:1004F00080E990E020E4FC01208381E990E02BE09A
:10050000FC01208360E070E0CB010E94D401000078
:10051000DF91CF910895CF93DF93CDB7DEB780E918
:1005200090E0FC01108281E990E0FC011082000063
:10053000DF91CF910895CF93DF9300D0CDB7DEB791
:100540009A83898389819A81892B19F01A82198269
:1005500001C0000089819A81892B09F012C08FEFB8
:10056000809312011092190188E290E0209112010B
:10057000FC0120838BE290E020911901FC01208393
:10058000000088E290E020911201FC0120838BE2C0
:1005900090E020911901FC01208389819A810F90BC
:1005A0000F90DF91CF910895CF93DF93CDB7DEB752
:1005B0002F970FB6F894DEBF0FBECDBF81E290E05B
:1005C000FC01108282E290E02FEFFC01208384E2A4
:1005D00090E02FE7FC01208385E290E020E8FC0119
:1005E000208387E290E02FEFFC01208388E290E0F7
:1005F000FC0110828AE290E02FEFFC0120838BE265
:1006000090E0FC01108281E090E09C838B831D824E
:1006100084E690E0A0E0B0E08E839F83A887B9874E
:1006200084E690E0A0E0B0E08A879B87AC87BD8736
:100630008BE992E09F878E8761E070E080E090E038
:100640000E9490000E94BE001A821982A5C02981D2
:100650003A814BE0429FC001439F900D11249E01BF
:100660002F5F3F4F820F931F0996FC01208131813C
:100670004281538169817A81EBE0E69FC001E79F67
:10068000900D1124BE016F5F7F4F860F971F059657
:10069000FC0180819181A281B381281739074A0723
:1006A0005B0708F44AC029813A814BE0429FC001B0
:1006B000439F900D11249E012F5F3F4F820F931F88
:1006C0000D96FC012081318149815A816BE0649F44
:1006D000C001659F900D1124AE014F5F5F4F840FE5
:1006E000951F0496FC018081082E000C990BF901DE
:1006F0000995582F29813A814BE0429FC001439FC1
:10070000900D11249E012F5F3F4F820F931F04967F
:10071000FC01508329813A814BE0429FC001439FF5
:10072000900D11249E012F5F3F4F820F931F09965A
:10073000FC01108211821282138229813A814BE0DE
:10074000429FC001439F900D11249E012F5F3F4F98
:10075000820F931F0996FC0180819181A281B38150
:100760000196A11DB11D49815A816BE0649F9001E2
:10077000659F300D1124AE014F5F5F4F240F351F71
:10078000275F3F4FF90180839183A283B3838981DF
:100790009A8101969A83898329813A818B819C81F0
:1007A0002817390708F453CF0000809114018823DB
:1007B000E1F31092140148CFA1E21A2EAA1BBB1B31
:1007C000FD010DC0AA1FBB1FEE1FFF1FA217B3071D
:1007D000E407F50720F0A21BB30BE40BF50B661F33
:1007E000771F881F991F1A9469F7609570958095F7
:1007F00090959B01AC01BD01CF0108950E94AB040F
:1008000008F481E008950E9417040C94E6040E9405
:10081000DF0458F00E94D80440F029F45F3F29F02B
:100820000C94CF0451110C941A050C94D5040E9419
:10083000F70468F39923B1F3552391F3951B550BF6
:10084000BB27AA2762177307840738F09F5F5F4FA3
:10085000220F331F441FAA1FA9F335D00E2E3AF0E2
:10086000E0E832D091505040E695001CCAF72BD0FA
:10087000FE2F29D0660F771F881FBB1F261737074B
:100880004807AB07B0E809F0BB0B802DBF01FF277D
:1008900093585F4F3AF09E3F510578F00C94CF0487
:1008A0000C941A055F3FE4F3983ED4F38695779550
:1008B0006795B795F7959F5FC9F7880F911D969536
:1008C000879597F90895E1E0660F771F881FBB1F92
:1008D000621773078407BA0720F0621B730B840B3F
:1008E000BA0BEE1F88F7E09508950E947C04689487
:1008F000B1110C941A0508950E94FF0488F09F57C7
:1009000098F0B92F9927B751B0F0E1F0660F771F33
:10091000881F991F1AF0BA95C9F714C0B13091F029
:100920000E941905B1E008950C941905672F782FDE
:100930008827B85F39F0B93FCCF3869577956795EE
:10094000B395D9F73EF490958095709561957F4F5A
:100950008F4F9F4F0895990F0008550FAA0BE0E89D
:10096000FEEF16161706E807F907C0F01216130671
:10097000E407F50798F0621B730B840B950B39F4B1
:100980000A2661F0232B242B252B21F408950A2617
:1009900009F4A140A6958FEF811D811D089597F957
:1009A0009F6780E870E060E008959FEF80EC089515
:1009B00000240A941616170618060906089500243E
:1009C0000A9412161306140605060895092E0394B8
:1009D000000C11F4882352F0BB0F40F4BF2B11F42C
:1009E00060FF04C06F5F7F4F8F4F9F4F089557FD8B
:1009F0009058440F551F59F05F3F71F04795880F8D
:100A000097FB991F61F09F3F79F087950895121623
:100A100013061406551FF2CF4695F1DF08C01616CF
:100A200017061806991FF1CF869571056105089480
:100A30000895E894BB2766277727CB0197F9089597
:100A40000E94AB0408F48FEF08950E9438050C94BF
:100A5000E6040E94D80438F00E94DF0420F09523B9
:100A600011F00C94CF040C94D50411240C941A05A5
:100A70000E94F70470F3959FC1F3950F50E0551F46
:100A8000629FF001729FBB27F00DB11D639FAA27E3
:100A9000F00DB11DAA1F649F6627B00DA11D661F32
:100AA000829F2227B00DA11D621F739FB00DA11D53
:100AB000621F839FA00D611D221F749F3327A00D0D
:100AC000611D231F849F600D211D822F762F6A2FA9
:100AD00011249F5750409AF0F1F088234AF0EE0F0E
:100AE000FF1FBB1F661F771F881F91505040A9F73B
:100AF0009E3F510580F00C94CF040C941A055F3F83
:100B0000E4F3983ED4F3869577956795B795F79576
:100B1000E7959F5FC1F7FE2B880F911D96958795EE
:080B200097F90895F894FFCF46
:100B28000000000200000000670000000000010053
:040B38000000FF00BA
:00000001FF
